:020000040202F6
:10A00000000000001DA00202DFF80CD000F01AF8DA
:10A01000004800472DA002021C58002002B5EFF3B3
:10A02000088181F3098805480047000004488047FB
:10A03000EFF3098181F3088802BD000045A0020208
:10A04000ADAF0202064C074D06E0E06840F00103A8
:10A0500094E8070098471034AC42F6D3FFF7D8FFD6
:10A060001CCA02023CCA020240EA01039B0703D059
:10A0700009E008C9121F08C0042AFAD203E011F847
:10A08000013B00F8013B521EF9D2704730B504463F
:10A090000020034600E05B1C934203D2E05CCD5CF1
:10A0A000401BF8D030BD034611F8012B00F8012BFE
:10A0B000002AF9D11846704780B588B08DF81F0086
:10A0C0008DF81E108DF81D209DF81F1045F2000020
:10A0D000C4F201001429C4BF46F20000C4F201001A
:10A0E00006909DF81F00152805DBFFE79DF81F006F
:10A0F0001538019003E09DF81F000190FFE70198DB
:10A1000005909DF81E009DF81D1001F06BFE8DF866
:10A1100013009DF8130040B9FFE7069850309DF8F2
:10A120001410002200F02EF829E00598C11700EB6A
:10A130005170C0100390059800F007008000029055
:10A140000299072000FA01F20698039900EB8101B9
:10A15000486D904348659DF81300029900FA01F29A
:10A160000698039900EB8101486D104348650698F5
:10A1700050309DF81410012200F004F8FFE708B0F9
:10A1800080BD000083B002908DF807108DF8062086
:10A190009DF80710012088400090029800680099FF
:10A1A00088439DF806109DF80720914008430299C6
:10A1B000086003B07047000080B586B08DF81700C6
:10A1C0008DF816109DF8171045F20000C4F201003A
:10A1D0001429C4BF46F20000C4F2010004909DF8A7
:10A1E0001700152805DBFFE79DF8170015380290CA
:10A1F00003E09DF817000290FFE7029803909DF896
:10A200001600032817D0FFE7049828309DF80C109B
:10A210009DF81620002A18BF0122FFF7B3FF04980B
:10A2200034309DF80C109DF81620B2FA82F25209D3
:10A23000FFF7A8FF0FE0049828309DF80C100022CB
:10A240000192FFF79FFF019A049834309DF80C109B
:10A25000FFF798FFFFE706B080BD000080B584B02F
:10A260008DF80B008DF80A109DF80B009DF80A1070
:10A2700001F096FF01900198B0F1FF3F03DCFFE78A
:10A2800001980390BAE09DF80B00112812DCFFE75B
:10A290009DF80B2046F20000C4F20000104320F0AD
:10A2A0000300019902F00302C2EBC203072201F08E
:10A2B000A7FEA0E09DF80B00142810DCFFE7019931
:10A2C0009DF80B206FF0150000EB4200C3B246F280
:10A2D0001000C4F20000022201F092FE8AE09DF814
:10A2E0000B0015280AD1FFE7019946F21000C4F2CD
:10A2F00000000722142301F083FE7AE09DF80B0092
:10A3000016280AD1FFE7019946F21400C4F20000B2
:10A310000722002301F074FE6AE09DF80B001E285E
:10A3200010DCFFE701999DF80B206FF0260000EB91
:10A330004200C3B246F21400C4F20000022201F04F
:10A340005FFE54E09DF80B001F280AD1FFE701993A
:10A3500046F21400C4F200000722172301F050FE59
:10A3600044E09DF80B0020280AD1FFE7019946F24E
:10A370001400C4F2000002221E2301F041FE34E06A
:10A380009DF80B0021280AD1FFE7019946F2180039
:10A39000C4F200000222002301F032FE24E09DF806
:10A3A0000B0023280FDCFFE701999DF80B00C0EBA1
:10A3B000C000EC38C3B246F21800C4F20000072215
:10A3C00001F01EFE0FE001999DF80B206FF03700A1
:10A3D00000EB4200C3B246F21800C4F200000222B1
:10A3E00001F00EFEFFE7FFE7FFE7FFE7FFE7FFE70C
:10A3F000FFE7FFE7FFE700200390FFE7039804B0C3
:10A4000080BD000080B582B00190019800EB400152
:10A4100045F22840C2F2000000EBC100183000F005
:10A4200087FB02B080BD000080B500F033FB80BD2B
:10A4300080B586B0059004910392FFE745F228406D
:10A44000C2F20000007818B9FFE700F023FBFFE735
:10A45000FFE7EFF311804FF0200181F311880190A5
:10A4600005980499039A00F007F80290019880F388
:10A470001188029806B080BD80B58AB00990089115
:10A48000079208980490099800EB400145F2284093
:10A49000C2F2000000EBC10018300390039840693D
:10A4A000029040B1FFE70298012819D0FFE7029817
:10A4B00002282CD032E0039800F03AFB0590059872
:10A4C0000799884203D2FFE70020069007E007982B
:10A4D000069003980499079A00F0BAFBFFE720E082
:10A4E000039800F025FB059005980799884203D250
:10A4F000FFE70598019002E007980190FFE70198B7
:10A50000069003980499069A00F0A2FB09E00398CC
:10A510000499079A00F02CFB069002E000200690B8
:10A52000FFE706980AB080BD80B582B001908DF833
:10A5300003108DF802209DF8030030B1FFE7019869
:10A540000021012201F042FDFFE79DF803109DF874
:10A5500002302820C4F20000012201F073FD9DF8B2
:10A56000030058B9FFE701990420C8F2000088658C
:10A5700001980122114601F029FDFFE702B080BDDC
:10A5800080B582B08DF807009DF80700012100F02A
:10A5900025F802B080BD000080B582B00190002097
:10A5A0008DF80300FFE79DF80300182813DCFFE790
:10A5B00001989DF80310C840C00728B1FFE79DF837
:10A5C0000300FFF7DDFFFFE7FFE79DF80300013021
:10A5D0008DF80300E7E702B080BD000080B586B0CB
:10A5E0008DF817008DF816109DF81700014604919C
:10A5F000182800F2B3810499DFE811F019002A004D
:10A600003B004C005D006E007F009000A100B20096
:10A61000CA00E300F4000D011E012F0140015101A9
:10A6200062016B0174017D0186019701A7019DF80C
:10A6300016100C20C4F20000152201F0C7FC9DF892
:10A6400016101420C4F20000122201F0BFFC86E1B3
:10A650009DF816100C20C4F20000162201F0B6FC82
:10A660009DF816101420C4F20000122201F0AEFC76
:10A6700075E19DF816100C20C4F20000022201F0D2
:10A68000A5FC9DF816101420C4F20000002201F071
:10A690009DFC64E19DF816100C20C4F2000003221A
:10A6A00001F094FC9DF816101420C4F20000012261
:10A6B00001F08CFC53E19DF816100C20C4F2000050
:10A6C000042201F083FC9DF816101420C4F200004F
:10A6D000022201F07BFC42E19DF816100C20C4F22E
:10A6E0000000012201F072FC9DF816101420C4F243
:10A6F0000000112201F06AFC31E19DF816100C20D7
:10A70000C4F20000052201F061FC9DF8161014202F
:10A71000C4F200000A2201F059FC20E19DF8161055
:10A720000C20C4F20000082201F050FC9DF8161025
:10A730001420C4F20000092201F048FC0FE19DF84A
:10A7400016100C20C4F20000092201F03FFC9DF815
:10A7500016105420C4F200000C2201F037FCFEE079
:10A760009DF816100C20C4F200000A2201F02EFC05
:10A770009DF816101420C4F200000390132201F07B
:10A7800025FC03989DF81610142201F01FFCE6E04A
:10A790009DF816100C20C4F200000B22019201F06B
:10A7A00015FC019A9DF816101420C4F200000290C6
:10A7B00001F00CFC02989DF81610102201F006FC26
:10A7C000CDE09DF816100C20C4F200000C2201F020
:10A7D000FDFB9DF816100820C4F20000002201F0D5
:10A7E000F5FBBCE09DF816100820C4F200000C2216
:10A7F00001F0ECFB9DF816100C20C4F200000D22B5
:10A8000001F0E4FB9DF816101420C4F200000622AB
:10A8100001F0DCFBA3E09DF816100C20C4F2000050
:10A820000E2201F0D3FB9DF816101420C4F2000094
:10A83000072201F0CBFB92E09DF816100C20C4F229
:10A8400000000F2201F0C2FB9DF816101420C4F284
:10A8500000000C2201F0BAFB81E09DF816100C20DC
:10A86000C4F20000102201F0B1FB9DF81610142074
:10A87000C4F20000082201F0A9FB70E09DF8161058
:10A880000C20C4F20000112201F0A0FB9DF816106C
:10A890001420C4F20000042201F098FB5FE09DF850
:10A8A00016100C20C4F20000122201F08FFB9DF85C
:10A8B00016101420C4F20000052201F087FB4EE0C0
:10A8C0009DF816100C20C4F20000132201F07EFB4C
:10A8D00045E09DF816100C20C4F20000142201F08F
:10A8E00075FB3CE09DF816100C20C4F2000000221D
:10A8F00001F06CFB33E09DF816100C20C4F2000050
:10A90000062201F063FB2AE09DF816100C20C4F229
:10A910000000172201F05AFB9DF816101420C4F213
:10A9200000000E2201F052FB19E09DF81610802065
:10A93000C4F200000090052201F048FB00989DF849
:10A940001610072201F042FB09E09DF816100C20BA
:10A95000C4F20000192201F039FB00E0FFE706B065
:10A9600080BD000080B582B08DF807009DF807100B
:10A970000020C4F214000122FFF7D6FD02B080BD12
:10A9800080B584B000F088FD0190019818B9FFE708
:10A99000012003905FE00198017842F20800C4F2C0
:10A9A00010000722042301F04DFB1C20C4F200001C
:10A9B00040F2EE210C22142301F044FB002002900F
:10A9C000FFE702980F2819D8FFE70198029900EBDA
:10A9D0004100808840F2A64188420ADBFFE70299E5
:10A9E00042F20000C4F2100004221C2301F02AFBF2
:10A9F00004E0FFE7029801300290E2E70298102895
:10AA000003D3FFE70220039025E001200290FFE737
:10AA100002980F2815D8FFE70198029900EB410032
:10AA2000808C40F29D41884206DBFFE702980138A6
:10AA3000C0B200F013F804E0FFE702980130029082
:10AA4000E6E70298102803D3FFE70320039002E013
:10AA500000200390FFE7039804B080BD80B582B06A
:10AA60008DF807009DF8070000F00F0142F200008A
:10AA7000C4F210000422012301F0E4FA02B080BD08
:10AA800082B001908DF803109DF8030001990860D1
:10AA900002B0704780B582B045F22840C2F2000093
:10AAA00001900199012008610199486101984CF6D3
:10AAB0000C21C0F202218161019A45F28040C2F26C
:10AAC0000000D061019A4FF4FA701062019A0020E0
:10AAD0009062019A5062019AD062019A1163019AC0
:10AAE00045F27041C2F200015163019A1021916355
:10AAF000019908640199C863019948640198073075
:10AB00004CF60821C0F20221FFF7CDFABFF35F8FA8
:10AB100001984CF60121C0F20221FFF7C4FABFF3FD
:10AB20005F8F019920208871BFF35F8F02B080BDD5
:10AB300084B003900398006902900398C068019064
:10AB400002980199884209D8FFE703988068019923
:10AB5000401A029908440138009005E002990198D2
:10AB6000C04308440090FFE7009804B0704700001D
:10AB700080B58AB009900891079200200590099845
:10AB8000C0680390FFE7099800690490049803994E
:10AB9000884206D9FFE704990398C0430844069009
:10ABA00008E0099881680398049A801AC043084411
:10ABB0000690FFE7069809998968039A891A8842DE
:10ABC00003D2FFE70698029005E009988068039990
:10ABD000401A0290FFE7029806900698079988426B
:10ABE00003D2FFE70698019002E007980190FFE783
:10ABF0000198069009984068039908440899069AB4
:10AC0000FFF732FA069905980844059006990898C6
:10AC10000844089006990798401A079006990398E7
:10AC200008440390039809998968884203D1FFE793
:10AC300000200390FFE7BFF35F8F03980999C86076
:10AC4000FFE7079800289ED1FFE705980AB080BD6E
:10AC500080B586B00590049103920598C068019074
:10AC6000059880680199401A0090009803998842DD
:10AC700010D9FFE705984068019908440499039AA0
:10AC8000FFF7F2F9BFF35F8F019803990844059924
:10AC9000C8601BE00098029005984068019908443C
:10ACA0000499029AFFF7E0F903980099401A02907C
:10ACB000059840680499009A1144029AFFF7D4F964
:10ACC000BFF35F8F02980599C860FFE706B080BDAB
:10ACD00080B58AB0ADF8220007918DF81B2005934E
:10ACE000BDF82210079A03A800F054F8FFE703A864
:10ACF00000F044F8E0B1FFE79DF81B00029003A8C4
:10AD000000F032F80146029888420CD1FFE703A810
:10AD1000019000F01FF801460198059A118000F09B
:10AD20000FF8099009E0FFE703A800F045F8DEE717
:10AD30000599002008800990FFE709980AB080BDB6
:10AD400081B000900098016880880844023001B00A
:10AD50007047000081B00090009908688988405CC5
:10AD60000138C0B201B0704781B00090009801680E
:10AD700080880844407801B07047000081B000909E
:10AD800000988188C28800209142B8BF012001B09C
:10AD90007047000083B00290ADF806100092009852
:10ADA00002990860BDF806000299C8800299002047
:10ADB000888003B07047000083B002900299086851
:10ADC0008988405C0190029880880199084401308C
:10ADD00000900098B0F5807F03DBFFE7FF20009034
:10ADE000FFE700980299888003B0704780B582B071
:10ADF0000190019801784CF6DF10C0F20220F5F7BF
:10AE00002BFC019A117848F21F50C5F2EB10A1FB00
:10AE1000003149093031917001990B78A3FB002072
:10AE20004009642200FB12304CF6CD42CCF6CC42F5
:10AE3000A0FB0203302000EBD300C8700199087812
:10AE4000A0FB02C3DB0803EB8303A0EB430040F04D
:10AE50003000087101994878A0FB0232D20802EB59
:10AE60008202A0EB420040F03000487102B080BD89
:10AE700087B00590049103920498C0000399B0FB39
:10AE8000F1F002900298C009019001990298A0EB9C
:10AE9000C110029002980130400800900198059975
:10AEA0004862BDF8060018B9FFE7019820B9FFE72E
:10AEB0004FF0FF30069018E001984FF6FF7188427E
:10AEC00004D1FFE705990020886207E00199029804
:10AED000401A0290009805998862FFE70598C06AB9
:10AEE0000599C86200200690FFE7069807B07047F2
:10AEF00081B0009000988069C0F3401001B07047A5
:10AF000080B584B0029001910092029900200863FC
:10AF100002994864029988630299486002994862DC
:10AF2000029988620299C8620298019AD1681269EE
:10AF3000FFF79EFF20B1FFE74FF0FF30039031E0B5
:10AF4000019890F800C041788378C278802000EAA8
:10AF5000411040EA4C1040EA031040EAC20001F000
:10AF6000030140EA41000299C8620198B0F8090063
:10AF700040BA029948630098029988630199087958
:10AF800091F805C08B79CA79400240EA0C20184438
:10AF900040EAC230097A40EA813002990863002011
:10AFA0000390FFE7039804B080BD000080B582B035
:10AFB000FFF7E6FC4CF2D440C0F20220F5F7EAFBC2
:10AFC00001F090F845F61600C2F2000001F038F9E1
:10AFD000022000210191F5F705FA019802B080BD29
:10AFE00080B584B084460698ADF80EC0ADF80C105C
:10AFF000ADF80A200193ADF80200002004B080BD36
:10B0000080B584B084460798DDF818E0ADF80EC02E
:10B01000ADF80C10ADF80A20ADF80830ADF8060018
:10B02000069801784CF6D310C0F20220F5F714FB15
:10B03000BDF80C00032812D1FFE7069800785B28C2
:10B040000CD1FFE70120E0F72DFA4BF6BD70C0F2FE
:10B0500002204FF4FA51F5F7C9FBFFE7FFE70020A4
:10B0600004B080BD81B000900098807801B0704736
:10B0700083B00290019100200090FFE70198411EEB
:10B08000019140B1FFE70298011D0291016800980B
:10B0900008440090F2E7009803B0704780B541F291
:10B0A0000000C0F200209221FFF7E2FF80BD000007
:10B0B00080B582B0019000910198016842684CF619
:10B0C0008A10C0F20220F5F7C7FAFFE7FEE700009A
:10B0D00070B588B007900691DDF81CC0CDF814C09B
:10B0E000DCF81810DCF81420DCF81C30DCF8000068
:10B0F000DCF804E0DCF80840DCF80C50DCF8106008
:10B10000EC46CCF81060CCF80C50CCF80840CCF8E9
:10B1100004E0CCF800004CF61210C0F20220F5F763
:10B120009BFAFFE7FEE7000080B582B00190009136
:10B1300001994CF67E10C0F20220F5F78DFAFFE778
:10B14000FEE7000080B582B001900091FFE741F278
:10B150000000C4F20100FFF7CBFE012801D1FFE798
:10B16000F5E70198017841F20000C4F20100FFF711
:10B1700087FC002002B080BD80B586B005900491A8
:10B180004EF60450CEF2000000686FF35F20B0FA74
:10B1900080F040098DF80B009DF80B0028B1FFE707
:10B1A000F5F7F8F9406B8047FFE70020FFF72AF931
:10B1B00003900599088949890844039988420EDA61
:10B1C000FFE705980168028900200190FFF730F938
:10B1D0000198059A51685289FFF72AF9FFE79DF80F
:10B1E0000B0028B1FFE7F5F7D5F9806B8047FFE743
:10B1F000002006B080BD000080B584B00390002020
:10B20000ADF80A000DF10A01E0F7F6F80190019897
:10B2100028B1FFE7BDF90A00062806D0FFE7039929
:10B2200000200622E0F738F915E001980078B0F523
:10B23000807F04DBFFE70199FF20087004E0019A9A
:10B240001078411C1170FFE70198FFF7CFFD002037
:10B25000E0F76AF9FFE704B080BD000080B588B070
:10B260000790069103208DF8040000228DF8052038
:10B2700001208DF806008DF807208DF808008DF864
:10B2800009008DF80A008DF80B208DF80C208DF840
:10B290000D008DF80E00079804900698059041F275
:10B2A0000000C4F2010001A9FFF72AFE08B080BD2A
:10B2B00080B596B0159014911392FFE7139801286A
:10B2C00031DBFFE700200290FFE7139900200129FE
:10B2D000019007DBFFE702990020102938BF012009
:10B2E0000190FFE70198C00788B1FFE7149800F0CC
:10B2F000E3FD029A03A941F822000298013002906E
:10B30000139801381390149804301490DDE71598C1
:10B3100002998A0003A901F033F80299159800EB0D
:10B3200081001590CAE716B080BD000080B582B0DC
:10B3300001904FF0FF30009001986946042200F020
:10B34000ADFD02B080BD000080B582B000208DF858
:10B350000600ADF8040045F21041C2F200011220CF
:10B36000092201ABFFF7B4FC0090BDF804104CF6C5
:10B370009F10C0F20220F5F76FF9009828B1FFE79F
:10B38000BDF804000D2804DCFFE701208DF807005C
:10B3900037E0BDF804009DF80610084401388DF828
:10B3A000060045F61000C2F2000042799DF8063012
:10B3B00045F21041C2F200010B449A7002799DF8E7
:10B3C0000630A3F1010C8DF806C0CA54C2789DF86E
:10B3D0000630A3F1010C8DF806C0CA5480789DF8A0
:10B3E00006208854BDF80400084441784CF6AD109E
:10B3F000C0F20220F5F730F9FFE700208DF80700D2
:10B40000FFE79DF8070002B080BD000080B584B062
:10B410008DF80B008DF80A10EFF31080039003985D
:10B42000019072B640F2C970804740F64D008047E7
:10B43000ADF80200BDF80200ADF80000BDF8020052
:10B440004BF683710840ADF802009DF80A008003B6
:10B450009DF80B1040EA8101BDF802000843ADF8E9
:10B460000200BDF80000BDF80210884206D0FFE7D8
:10B47000BDF8020040F601318847FFE740F2516015
:10B48000804740F60D008047019810B9FFE762B68B
:10B49000FFE704B080BD000080B582B000F00EF878
:10B4A00030B9FFE741F27800C0F20020019002E0DD
:10B4B00000200190FFE7019802B080BD80B586B002
:10B4C00000F0FEF918B1FFE70020059054E04FF4BA
:10B4D000805000F0F1FC0490049844F24371C4F6EB
:10B4E0004E11884203D0FFE70120059044E041F26D
:10B4F000040000F0E1FC0490049845F25301C4F606
:10B500004901884203D0FFE70220059034E00DF1A5
:10B510000F000DF10E0100F033F8002102910846F2
:10B52000FFF774FF41F20000C0F200200190FFF726
:10B53000FDFE01984FF480511E22FFF7B9FE41F243
:10B540007800C0F200204FF488512422FFF7B0FEAB
:10B5500041F20810C0F200204FF400515022FFF7D2
:10B56000A7FE00F095FF9DF80F009DF80E10FFF765
:10B570004DFF02980590FFE7059806B080BD0000DA
:10B5800080B586B004900391EFF310800590059884
:10B59000029072B640F2C970804740F64D00804775
:10B5A000ADF80600BDF80600C0F3803003990870BE
:10B5B000BDF80600C0F384000499087040F25160A1
:10B5C000804740F60D008047029810B9FFE762B649
:10B5D000FFE706B080BD000080B584B00390002076
:10B5E000ADF80A0001200DF10A01DFF705FF019017
:10B5F000019828B1FFE7BDF90A00012807D0FFE74D
:10B600000398411C01221046DFF746FF1EE0019817
:10B6100000780A2804DBFFE703990920487004E05A
:10B620000198007803994870FFE7019801784CF67B
:10B63000F510C0F20220F5F70FF8039841784CF6A8
:10B64000E910C0F20220F5F707F8FFE704B080BD6B
:10B6500041F24B20C0F200200068704781B000909A
:10B660000098B0F8030001B07047000081B000906E
:10B670000098807801B0704781B000900098007801
:10B6800001B0704781B000900098043001B070475D
:10B6900080B588B00790069105920493002003902E
:10B6A000FFE70398FF2830DCFFE79DF80C0000F06F
:10B6B00003FB0290029860B1FFE7DDF81CC0029A1C
:10B6C000516810785278069BE04708B1FFE71CE00C
:10B6D00016E09DF80C000599049A00F021FB0190FA
:10B6E000019860B1FFE7DDF81CC001990A7848783D
:10B6F0000231069BE04708B1FFE706E0FFE7FFE7FE
:10B70000FFE7039801300390CBE708B080BD00004D
:10B7100080B584B08DF80B0001919DF80B0000F00E
:10B7200057FA0090009860B1FFE7019828B1FFE751
:10B730000098407801990880FFE7009840680390DE
:10B7400002E000200390FFE7039804B080BD0000F2
:10B7500080B584B08DF80F000291ADF806209DF8F9
:10B760000F0000F035FA0090009868B1FFE7F4F799
:10B7700011FF016B009840688847009900204860DD
:10B780000099FF200870FFE79DF80F000299BDF9AE
:10B79000062000F0C5F804B080BD000080B584B07C
:10B7A0008DF80F009DF80F0000F086FA02900298C5
:10B7B00088B1FFE7F4F7EEFE016B02984068884716
:10B7C0000299002048600299FF2008709DF80F0040
:10B7D00000F05AF914E09DF80F0042F20001C0F2A7
:10B7E000042143F20002C0F2042200F099FA019011
:10B7F000019828B1FFE79DF80F0000F045F9FFE739
:10B8000004B080BD80B582B000200190FFE70198B0
:10B81000312829DCFFE7019945F27C60C2F2000083
:10B8200000EBC1004068D0B1FFE7019A45F27C61AE
:10B83000C2F200010091FF2001F83200F4F7AAFEE5
:10B8400001460098096B019A00EBC20040688847E6
:10B850000098019900EBC10100204860FFE7FFE775
:10B86000019801300190D2E700F0A0F902B080BD4C
:10B8700080B582B08DF807009DF8070000F01CFA33
:10B880000090009840B1FFE79DF80700009A5168CA
:10B89000527800F045F8FFE702B080BD80B582B075
:10B8A000019000910198009942F20002C0F2042236
:10B8B00043F20003C0F20423FFF7EAFE02B080BDAA
:10B8C00080B584B041F20000C0F2002002900298DE
:10B8D000006844F24371C4F64E11884209D1FFE773
:10B8E0000298406845F25301C4F64901884203D0EA
:10B8F000FFE7002003900FE0FFF7AAFE0190FFF79B
:10B90000CDFB01460198884203D0FFE70020039059
:10B9100002E001200390FFE7039804B080BD00001F
:10B9200080B58AB08DF823000791069206980530FD
:10B9300020F0030005900798049006988DF80C00FD
:10B940009DF823008DF80D00049800788DF80E0006
:10B95000049840788DF80F0045F60C00C2F2000004
:10B9600000680599084443F20101C0F204218842AD
:10B9700005D3FFE79DF8230000F066F8FFE745F6E2
:10B980000C00C2F2000000680599084443F201016E
:10B99000C0F20421884203D3FFE70120099028E088
:10B9A00045F60C00C2F200000290006803A90422D0
:10B9B00000F0E6FC02990868043008600598043835
:10B9C00005900598012811DBFFE745F60C00C2F24F
:10B9D00000000190006804990231059A00F0D0FC43
:10B9E0000199059A086810440860FFE70020099053
:10B9F000FFE709980AB080BD80B596B01590149104
:10BA00001498FFF793FC00201390FFE713983F284A
:10BA100017D8FFE7159903A8019040220292FEF77C
:10BA200023FB0199029A149800F0AAFC1598403063
:10BA30001590149840301490FFE71398013013903C
:10BA4000E4E716B080BD000080B582B08DF8070035
:10BA500042F20000C0F2042043F20001C0F20421CF
:10BA60000091FFF7C9FF00F0A1F8009A9DF80710B8
:10BA70004BF6A150C0F2022044F20003C0F20423AE
:10BA8000FFF706FE02B080BD80B582B08DF80700DA
:10BA90009DF8070000221146FFF742FF02B080BD6B
:10BAA00080B588B00690059106980490FFE7069946
:10BAB000059A00209142019008D2FFE7049801788E
:10BAC0000020FF29B8BF01200190FFE70198C007BF
:10BAD00078B1FFE7049800F0CDF903900398059939
:10BAE000884201D3FFE704E003980690069804908B
:10BAF000DDE7069845F60C01C2F200010860FFE799
:10BB00000698059988420ED2FFE70698029002989F
:10BB10000068013018B1FFE70120079006E00698A1
:10BB200004300690ECE700200790FFE7079808B084
:10BB300080BD000080B584B042F20000C0F2042055
:10BB400043F20001C0F20421FFF7AAFF039003981B
:10BB500018B3FFE743F20000C0F2042044F20001F2
:10BB6000C0F20421FFF79CFF0390039888B9FFE718
:10BB700043F20000C0F20420029042F20001C0F241
:10BB800004210191FFF738FF01980299FFF788FF20
:10BB900002E000F00BF8FFE7FFE74CF65C00C0F2B4
:10BBA0000220DFF76FFC04B080BD000080B582B0DA
:10BBB00042F20000C0F204200190FFF7B7FB0198A9
:10BBC00045F60C01C2F20001086002B080BD000021
:10BBD00080B586B08DF813009DF8130000F06CF866
:10BBE0000190019818B1FFE70198059060E09DF879
:10BBF000130042F20001C0F2042143F20002C0F23D
:10BC0000042200F08DF80290029800284DD0FFE742
:10BC100002980078012848DBFFE700200390FFE747
:10BC20000398312810DCFFE7039945F27C60C2F2EB
:10BC3000000000EBC100406808B9FFE704E0FFE73F
:10BC4000039801300390EBE70398322803DBFFE70A
:10BC5000002005902CE0F4F79DFCC16A0298007862
:10BC600088470146039A45F27C60C2F200000090CA
:10BC700000EBC20251609DF81310039A00F83210D5
:10BC800002990978039A00EBC2025170039900EB04
:10BC9000C1004068029911F8022BFEF7E5F90098FF
:10BCA000039900EBC100059002E000200590FFE73A
:10BCB000059806B080BD000083B08DF80700002015
:10BCC0000090FFE70098312824DCFFE7009945F257
:10BCD0007C60C2F2000010F831009DF80710884225
:10BCE00013D1FFE7009945F27C60C2F2000000EB3F
:10BCF000C100406848B1FFE7009945F27C60C2F29C
:10BD0000000000EBC100029007E0FFE7009801305F
:10BD10000090D7E700200290FFE7029803B0704739
:10BD200080B588B08DF81B00059104920020039027
:10BD300005980290FFE702980078FE2819DCFFE7DB
:10BD4000029800F097F8019001980499884201D96F
:10BD5000FFE70EE0029840789DF81B10884203D15F
:10BD6000FFE702980390FFE701980590059802907D
:10BD7000E1E7039870B1FFE703980078012803DB3F
:10BD8000FFE70398009002E000200090FFE7009892
:10BD9000079002E000200790FFE7079808B080BDF9
:10BDA00080B586B08DF817000491ADF80E2002938F
:10BDB00002988DF807009DF807009DF8171088423B
:10BDC0000DD0FFE7BDF90E00012808DBFFE79DF865
:10BDD00017000499BDF90E20FFF7A2FDFFE7002030
:10BDE00006B080BD84B08DF80E008DF80D109DF862
:10BDF0000D000146029120B1FFE7029801281CD0F6
:10BE00002FE09DF80E0001460191012808D0FFE7C0
:10BE10000198022808D0FFE70198032808D00BE01A
:10BE200005208DF80F0020E006208DF80F001CE0A3
:10BE300007208DF80F0018E013E09DF80E00014672
:10BE40000091012804D0FFE70098022804D007E001
:10BE500003208DF80F0008E002208DF80F0004E0A9
:10BE6000FFE700208DF80F00FFE79DF80F0004B0FA
:10BE70007047000082B0019001980078053020F0F2
:10BE80000300009001980099084402B07047000038
:10BE900082B001900091002002B0704780B584B05C
:10BEA00003900291019203980299019A43F69B3301
:10BEB000984704B080BD000080B596B0149002A9E8
:10BEC0000020B0EB917F06D1FFE7149802A900F0A3
:10BED00017F8159011E00020C2F201000090012037
:10BEE000FEF740FD1498009900F00AF80190002038
:10BEF000FEF738FD01981590FFE7159816B080BD44
:10BF000080B586B00490039103984CF6C901C0F245
:10BF100002214822FEF7A8F8EFF31080059005985B
:10BF2000019072B640F2C97080470498039900F0FE
:10BF300049F8029040F25160804740F60D0080477A
:10BF4000019810B9FFE762B6FFE7029806B080BD1E
:10BF500080B584B002908DF807100020ADF8040081
:10BF60009DF8070001A9DFF747FA0090009828B173
:10BF7000FFE7BDF90400062804D0FFE701208DF893
:10BF80000F0016E0009800780299087000988078F9
:10BF9000029988700098C0780299C870009800795A
:10BFA000029908710298FEF721FF00208DF80F001A
:10BFB000FFE79DF80F0004B080BD000080B5F4F7E6
:10BFC00089FB80BD01F101010847000083B00290A8
:10BFD0008DF807108DF806209DF806100120884086
:10BFE000009002980068009988439DF807109DF81A
:10BFF0000620914008430299086003B07047000092
:10C0000085B0049003918DF80B208DF80A309DF8CF
:10C010000B10012088400138019001989DF80A100A
:10C020008840C04300900498006800990840039934
:10C03000019A11409DF80A20914008430499086034
:10C0400005B0704784B0039002918DF807208DF8F9
:10C0500006309DF807100120884001389DF8061031
:10C0600088400090039800680099884302999DF8E1
:10C070000620914008430399086004B0704700000F
:10C0800080B58EB06A4600200C909062506201210B
:10C090000D911162D061916150611061D06090602A
:10C0A0005160072111601321A1231A46DBF784FC9C
:10C0B0000C9845F21042C2F200021221DBF738FC64
:10C0C0000D990C984CF61112C0F20222DBF730FDEC
:10C0D0000D994CF2CC42C0F202220846DBF734FC48
:10C0E0000EB080BD80B582B043F20060C0F26E1029
:10C0F0004FF4E131FFF7B2F80120C0F22000FEF763
:10C100004BFA00200090FEF73BFA009906200190C0
:10C11000FEF7A4F800990198FEF74EF80198012265
:10C120001146FDF7C9FF02B080BD000080B586B0A2
:10C13000059004914CF6C410C0F20220F4F78CFA7A
:10C14000FFF7F8FC45F61000C2F200000190FFF77F
:10C1500043FA0198FFF750F8019800210391FFF787
:10C16000F7FEFFF7F1F84AF6E170C0F202204BF259
:10C170000101C0F20221D9F7F3FD45F27460C2F269
:10C1800000004CF26121C0F2022102914160DEF711
:10C19000D5F80298D9F78EFE039806B080BD00004E
:10C1A00085B08DF80F008DF80E109DF80F002A282D
:10C1B00004DBFFE74FF0FF3004903EE09DF80F00F6
:10C1C0004CF23C52C0F20222132110FB01200290DB
:10C1D000002001909DF80E000138009002989DF813
:10C1E0000E10CA08805C01F007028021D14008428D
:10C1F00004D1FFE74FF0FF3004901EE0FFE7009806
:10C20000002817D4FFE702980099CA1701EB527271
:10C21000D210805C01F007028021D140084204D096
:10C22000FFE7019801300190FFE7FFE70098013830
:10C230000090E4E701980490FFE7049805B0704788
:10C2400080B582B00190FEF7EFF802B080BD00002B
:10C2500083B002900191ADF80220FFE703B0704770
:10C2600080B588B08DF81F00ADF81C100692ADF8AF
:10C2700016300698FFF700FA8DF815009DF81F009C
:10C28000042801D0FFE779E09DF8150001460391ED
:10C2900005285DD0FFE703980E2821D0FFE703981B
:10C2A0003E2822D0FFE70398602808D0FFE70398D4
:10C2B000B72856D0FFE70398FF2853D05DE00698D3
:10C2C000FEF7D0FE022801D0FFE757E04CF615211B
:10C2D000C0F202210020DBF71FFAFFF7D1FE4DE08C
:10C2E0000698FFF7BBF9FFE748E00698FFF7BEF9AD
:10C2F000014602910A2804D0FFE70298292825D197
:10C30000FFE7069880884CF67401C0F20221D9F745
:10C31000F8FD45F61000C2F2000010F8011F009071
:10C320000131017001784CF6B910C0F20220F4F727
:10C3300093F90020DFF7B6F8009901220192104628
:10C34000DFF7AAF80198DFF7EFF800E0FFE715E064
:10C350004CF2CC42C0F2022201210846DBF7F4FA8B
:10C360000CE00BE00698FFF78DF90490049A106832
:10C3700051681289FFF76CFF00E0FFE708B080BD4D
:10C3800080B586B004900391029204980399029AB2
:10C3900000F018F80190019818B1FFE70198059096
:10C3A0000CE004980399029AFDF770FE002818BF6C
:10C3B00001204000019001980590FFE7059806B024
:10C3C00080BD000080B58AB007900691059207985D
:10C3D00020F0FF0000F58070049000200390FFE73C
:10C3E00003980599884211D2FFE70798039A805C69
:10C3F0000699895C0840884203D0FFE70120089035
:10C4000042E0FFE7039801300390E9E7EFF3108083
:10C4100009900998029072B640F2C9708047FFE710
:10C42000059818B3FFE704980799401A01900198FE
:10C430000599884203D3FFE705980190FFE7079825
:10C440000699019A43F6D7439847019907980844FB
:10C450000790019906980844069001990598401A9A
:10C460000590049800F580700490D9E740F251607F
:10C47000804740F60D008047029810B9FFE762B68A
:10C48000FFE700200890FFE708980AB080BD000091
:10C4900080B582B0FEF702FE019041F24B20C0F25F
:10C4A000002001A90422FFF76BFF02B080BD02E06B
:10C4B00008C8121F08C1002AFAD17047704700202F
:10C4C00001E001C1121F002AFBD1704700000000EB
:10C4D0000000000045B10202000000002DC1020270
:10C4E000000000000000000000000000000000004C
:10C4F000000000000000000000000000D1B00202B7
:10C5000000000000B1B002020000000091BE020273
:10C510000000000029B102020000000079B102020F
:10C52000165800200000000000000000000000007D
:10C53000000000000000000000000000FFFFFFFA04
:10C54000AAAA48C000020FFFFFFF00000387E0FF18
:10C55000FFFFF5555524A000010FFFFFFE800003EB
:10C56000A7E0FFFFFFFAAAA8909000008FFFFFFE50
:10C5700040000397E0FFFFFFF55556488800004F45
:10C58000FFFFFE200003C7E0FFFFFFFAAAA92684F1
:10C5900000002FFFFFFE10000387E0FFFFFFF555AF
:10C5A00054928200001FFFFFFE0800038FE0FFFF90
:10C5B000FFFAAAAA4A8100020FFFFFFE04000387C8
:10C5C000E0FFFFFFF55555268080010FFFFFFE02BB
:10C5D0000003A7E0FFFFFFFAAAA8928040008FFFA8
:10C5E000FFFE01000397E0FFFFFFF555564A80204C
:10C5F000004FFFFFFE008003C7E0FFFFFFFAAAA97C
:10C60000268010002FFFFFFE00400387E0FFFFFFA2
:10C61000F55554918008001FFFFFFE0020038FE0B6
:10C62000FFFFFFFAAAAA498004000FFFFFFE0010D7
:10C630000387E0FFFFFFF55555258002000FFFFF40
:10C64000FE00080387E0FFFFFFFAAAA8918001001F
:10C650000FFFFFFE00040387E0FFFFFFF55556497B
:10C660008000800FFFFFFE00021387E0FFFFFFFA4C
:10C67000AAA9258000400FFFFFFE00010B87E0FF05
:10C68000FFFFF55554918000240FFFFFFE00008747
:10C6900087E0C8000000000000000000010000006A
:10C6A0000000000000D000000000000000000002B8
:10C6B0000000000000000000C400000000000000B6
:10C6C0000000008000000000000000FFFFFFFAAA49
:10C6D000AA488000100FFFFFFE00004387E0FFFF25
:10C6E000FFF55555248000080FFFFFFE000023874B
:10C6F000E0C0000000000000400000000000010059
:10C7000000000000C0000000000000200000000049
:10C7100000008000000000C00000000000001000C9
:10C7200000000000004000000000C2000000000007
:10C7300000000000004000000000000000C10000F8
:10C7400000000000000000002000000000000000C9
:10C75000C080000000000000000000100000000089
:10C76000000000C000000000000008000000000001
:10C77000002000000000C0000000000000040000D5
:10C78000000000001000000000FFFFFFFAAAA890C0
:10C790008200000FFFFFFE08000387E0C0000000DA
:10C7A000000000010000000000000400000000C0C4
:10C7B00000000000000000800000000000020000F7
:10C7C0000000FFFFFFF555564B8040000FFFFFFEB6
:10C7D00001000387E0FFFFFFFAAAA9278020000FCE
:10C7E000FFFFFE00800387E0C000000000000000A3
:10C7F0001000000000000040000000C00000000029
:10C800000000000800000000000020000000C00040
:10C810000000000000000400000000000010000004
:10C8200000C0000000000000000200000000000046
:10C8300008000000C000000000000000010000002F
:10C8400000000004000000C0000000000000000024
:10C8500080000000000002000000000005B8020295
:10C860009DB7020251B7020211B702029DB802023F
:10C8700071B802021800020001000028A487CA1142
:10C88000788818A2FC43C11D347B83FD1B00020085
:10C89000020003281E0300AF033B0CC57B9AACD1FA
:10C8A00040A95BB507E19016001E030300AF033BF0
:10C8B0000CC57B9AACD140A95BB507E1900A000A90
:10C8C00001040002290000000080B582B00190142C
:10C8D00021C4F215010868022262F3524008600484
:10C8E00021C4F215010868042262F31020086001D7
:10C8F00098000248300021C4F21501086040F66D2E
:10C900003080471020C4F21500006802B080BD00DE
:10C910000000484152444641554C543A0A50432085
:10C920003A203078253038580A4C52203A20307856
:10C93000253038580A5053523A203078253038582C
:10C940000A5230203A203078253038580A523120A7
:10C950003A203078253038580A5232203A20307840
:10C96000253038580A5233203A203078253038584C
:10C970000A5231323A203078253038580A005B4F5D
:10C980004F4D5D20402025640A005B4153534552C2
:10C9900054494F4E5D20402025733A25640A006CAF
:10C9A000656E6774682069732025640A006C6F6F78
:10C9B000702069732025640A00636E7420697320F7
:10C9C00025640A0073657475702070726F66696CF7
:10C9D000650A00726563656976652025780A00310D
:10C9E0002E2069732025640A0064617461206973D4
:10C9F0002025640A0074656D702069732025640A1F
:10CA00000053454747455200525454005465726DD7
:10CA1000696E616C00C9A508FC07D80040CA020213
:10CA20001054002018000000AEC4020258CA0202CE
:10CA300028540020F4030000BEC4020200000000DD
:10CA4000110974656D70395F6C6F6F705F00000065
:08CA50005F700000000000000F
:040000050202A0094A
:00000001FF
